{
  "contractName": "MockERC20",
  "abi": [
    {
      "inputs": [
        {
          "internalType": "uint256",
          "name": "initialSupply",
          "type": "uint256"
        }
      ],
      "stateMutability": "nonpayable",
      "type": "constructor"
    },
    {
      "anonymous": false,
      "inputs": [
        {
          "indexed": true,
          "internalType": "address",
          "name": "owner",
          "type": "address"
        },
        {
          "indexed": true,
          "internalType": "address",
          "name": "spender",
          "type": "address"
        },
        {
          "indexed": false,
          "internalType": "uint256",
          "name": "value",
          "type": "uint256"
        }
      ],
      "name": "Approval",
      "type": "event"
    },
    {
      "anonymous": false,
      "inputs": [
        {
          "indexed": true,
          "internalType": "address",
          "name": "from",
          "type": "address"
        },
        {
          "indexed": true,
          "internalType": "address",
          "name": "to",
          "type": "address"
        },
        {
          "indexed": false,
          "internalType": "uint256",
          "name": "value",
          "type": "uint256"
        }
      ],
      "name": "Transfer",
      "type": "event"
    },
    {
      "inputs": [],
      "name": "decimals",
      "outputs": [
        {
          "internalType": "uint8",
          "name": "",
          "type": "uint8"
        }
      ],
      "stateMutability": "view",
      "type": "function"
    },
    {
      "inputs": [],
      "name": "name",
      "outputs": [
        {
          "internalType": "string",
          "name": "",
          "type": "string"
        }
      ],
      "stateMutability": "view",
      "type": "function"
    },
    {
      "inputs": [],
      "name": "symbol",
      "outputs": [
        {
          "internalType": "string",
          "name": "",
          "type": "string"
        }
      ],
      "stateMutability": "view",
      "type": "function"
    },
    {
      "inputs": [],
      "name": "totalSupply",
      "outputs": [
        {
          "internalType": "uint256",
          "name": "",
          "type": "uint256"
        }
      ],
      "stateMutability": "view",
      "type": "function"
    },
    {
      "inputs": [
        {
          "internalType": "uint256",
          "name": "additionalAmount",
          "type": "uint256"
        }
      ],
      "name": "increaseTotalSupply",
      "outputs": [],
      "stateMutability": "nonpayable",
      "type": "function"
    },
    {
      "inputs": [
        {
          "internalType": "address",
          "name": "tokenOwner",
          "type": "address"
        }
      ],
      "name": "balanceOf",
      "outputs": [
        {
          "internalType": "uint256",
          "name": "",
          "type": "uint256"
        }
      ],
      "stateMutability": "view",
      "type": "function"
    },
    {
      "inputs": [
        {
          "internalType": "address",
          "name": "owner",
          "type": "address"
        },
        {
          "internalType": "address",
          "name": "delegate",
          "type": "address"
        }
      ],
      "name": "allowance",
      "outputs": [
        {
          "internalType": "uint256",
          "name": "",
          "type": "uint256"
        }
      ],
      "stateMutability": "view",
      "type": "function"
    },
    {
      "inputs": [
        {
          "internalType": "address",
          "name": "delegate",
          "type": "address"
        },
        {
          "internalType": "uint256",
          "name": "numTokens",
          "type": "uint256"
        }
      ],
      "name": "approve",
      "outputs": [
        {
          "internalType": "bool",
          "name": "",
          "type": "bool"
        }
      ],
      "stateMutability": "nonpayable",
      "type": "function"
    },
    {
      "inputs": [
        {
          "internalType": "address",
          "name": "receiver",
          "type": "address"
        },
        {
          "internalType": "uint256",
          "name": "numTokens",
          "type": "uint256"
        }
      ],
      "name": "transfer",
      "outputs": [
        {
          "internalType": "bool",
          "name": "",
          "type": "bool"
        }
      ],
      "stateMutability": "nonpayable",
      "type": "function"
    },
    {
      "inputs": [
        {
          "internalType": "address",
          "name": "owner",
          "type": "address"
        },
        {
          "internalType": "address",
          "name": "buyer",
          "type": "address"
        },
        {
          "internalType": "uint256",
          "name": "numTokens",
          "type": "uint256"
        }
      ],
      "name": "transferFrom",
      "outputs": [
        {
          "internalType": "bool",
          "name": "",
          "type": "bool"
        }
      ],
      "stateMutability": "nonpayable",
      "type": "function"
    },
    {
      "inputs": [
        {
          "internalType": "address",
          "name": "account",
          "type": "address"
        },
        {
          "internalType": "uint256",
          "name": "amount",
          "type": "uint256"
        }
      ],
      "name": "mint",
      "outputs": [],
      "stateMutability": "nonpayable",
      "type": "function"
    }
  ],
  "bytecode": "0x6080604052348015600e575f80fd5b50604051610856380380610856833981016040819052602b916076565b6002819055335f81815260208181526040808320859055518481527fddf252ad1be2c89b69c2b068fc378daa952ba7f163c4a11628f55a4df523b3ef910160405180910390a350608c565b5f602082840312156085575f80fd5b5051919050565b6107bd806100995f395ff3fe608060405234801561000f575f80fd5b50600436106100a6575f3560e01c8063313ce5671161006e578063313ce5671461014c57806340c10f191461016657806370a082311461017957806395d89b41146101a1578063a9059cbb146101c3578063dd62ed3e146101d6575f80fd5b806306fdde03146100aa578063095ea7b3146100ef57806318160ddd146101125780631d43cc981461012457806323b872dd14610139575b5f80fd5b6100d96040518060400160405280601081526020016f26b7b1b59022a9219918102a37b5b2b760811b81525081565b6040516100e69190610614565b60405180910390f35b6101026100fd366004610664565b61020e565b60405190151581526020016100e6565b6002545b6040519081526020016100e6565b61013761013236600461068c565b61027a565b005b6101026101473660046106a3565b6102da565b610154601281565b60405160ff90911681526020016100e6565b610137610174366004610664565b61047d565b6101166101873660046106dc565b6001600160a01b03165f9081526020819052604090205490565b6100d9604051806040016040528060038152602001624d434b60e81b81525081565b6101026101d1366004610664565b610546565b6101166101e43660046106fc565b6001600160a01b039182165f90815260016020908152604080832093909416825291909152205490565b335f8181526001602090815260408083206001600160a01b038716808552925280832085905551919290917f8c5be1e5ebec7d5bd14f71427d1e84f3dd0314c0f7b2291e5b200ac8c7c3b925906102689086815260200190565b60405180910390a35060015b92915050565b8060025f82825461028b9190610741565b9091555050335f90815260208190526040812080548392906102ae908490610741565b909155505060405181815233905f905f805160206107688339815191529060200160405180910390a350565b6001600160a01b0383165f9081526020819052604081205482111561033d5760405162461bcd60e51b8152602060048201526014602482015273496e73756666696369656e742062616c616e636560601b60448201526064015b60405180910390fd5b6001600160a01b0384165f9081526001602090815260408083203384529091529020548211156103a85760405162461bcd60e51b8152602060048201526016602482015275496e73756666696369656e7420616c6c6f77616e636560501b6044820152606401610334565b6001600160a01b0384165f90815260208190526040812080548492906103cf908490610754565b90915550506001600160a01b0384165f90815260016020908152604080832033845290915281208054849290610406908490610754565b90915550506001600160a01b0383165f9081526020819052604081208054849290610432908490610741565b92505081905550826001600160a01b0316846001600160a01b03165f805160206107688339815191528460405161046b91815260200190565b60405180910390a35060019392505050565b6001600160a01b0382166104d35760405162461bcd60e51b815260206004820152601860248201527f4d696e7420746f20746865207a65726f206164647265737300000000000000006044820152606401610334565b8060025f8282546104e49190610741565b90915550506001600160a01b0382165f9081526020819052604081208054839290610510908490610741565b90915550506040518181526001600160a01b038316905f905f805160206107688339815191529060200160405180910390a35050565b335f9081526020819052604081205482111561059b5760405162461bcd60e51b8152602060048201526014602482015273496e73756666696369656e742062616c616e636560601b6044820152606401610334565b335f90815260208190526040812080548492906105b9908490610754565b90915550506001600160a01b0383165f90815260208190526040812080548492906105e5908490610741565b90915550506040518281526001600160a01b0384169033905f8051602061076883398151915290602001610268565b602081525f82518060208401528060208501604085015e5f604082850101526040601f19601f83011684010191505092915050565b80356001600160a01b038116811461065f575f80fd5b919050565b5f8060408385031215610675575f80fd5b61067e83610649565b946020939093013593505050565b5f6020828403121561069c575f80fd5b5035919050565b5f805f606084860312156106b5575f80fd5b6106be84610649565b92506106cc60208501610649565b9150604084013590509250925092565b5f602082840312156106ec575f80fd5b6106f582610649565b9392505050565b5f806040838503121561070d575f80fd5b61071683610649565b915061072460208401610649565b90509250929050565b634e487b7160e01b5f52601160045260245ffd5b808201808211156102745761027461072d565b818103818111156102745761027461072d56feddf252ad1be2c89b69c2b068fc378daa952ba7f163c4a11628f55a4df523b3efa2646970667358221220edba030758a9e16d65c3f2d26b529ea2299ea250d2bb5450cf81fbcb379e78a464736f6c63430008190033",
  "immutableReferences": {},
  "source": "// SPDX-License-Identifier: MIT\npragma solidity ^0.8.25;\n\ncontract MockERC20 {\n    string public constant name = \"Mock ERC20 Token\";\n    string public constant symbol = \"MCK\";\n    uint8 public constant decimals = 18;\n\n    event Transfer(address indexed from, address indexed to, uint256 value);\n    event Approval(address indexed owner, address indexed spender, uint256 value);\n\n    mapping(address => uint256) balances;\n    mapping(address => mapping(address => uint256)) allowed;\n\n    uint256 totalSupply_;\n\n    constructor(uint256 initialSupply) {\n        totalSupply_ = initialSupply;\n        balances[msg.sender] = totalSupply_;\n        emit Transfer(address(0), msg.sender, totalSupply_);\n    }\n\n    function totalSupply() public view returns (uint256) {\n        return totalSupply_;\n    }\n\n    function increaseTotalSupply(uint256 additionalAmount) public {\n        totalSupply_ += additionalAmount;\n        balances[msg.sender] += additionalAmount;\n        emit Transfer(address(0), msg.sender, additionalAmount);\n    }\n\n    function balanceOf(address tokenOwner) public view returns (uint256) {\n        return balances[tokenOwner];\n    }\n\n    function allowance(address owner, address delegate) public view returns (uint256) {\n        return allowed[owner][delegate];\n    }\n\n    function approve(address delegate, uint256 numTokens) public returns (bool) {\n        allowed[msg.sender][delegate] = numTokens;\n        emit Approval(msg.sender, delegate, numTokens);\n        return true;\n    }\n\n    function transfer(address receiver, uint256 numTokens) public returns (bool) {\n        require(numTokens <= balances[msg.sender], \"Insufficient balance\");\n        balances[msg.sender] -= numTokens;\n        balances[receiver] += numTokens;\n        emit Transfer(msg.sender, receiver, numTokens);\n        return true;\n    }\n\n    function transferFrom(address owner, address buyer, uint256 numTokens) public returns (bool) {\n        require(numTokens <= balances[owner], \"Insufficient balance\");\n        require(numTokens <= allowed[owner][msg.sender], \"Insufficient allowance\");\n\n        balances[owner] -= numTokens;\n        allowed[owner][msg.sender] -= numTokens;\n        balances[buyer] += numTokens;\n        emit Transfer(owner, buyer, numTokens);\n        return true;\n    }\n\n    function mint(address account, uint256 amount) public {\n        require(account != address(0), \"Mint to the zero address\");\n        totalSupply_ += amount;\n        balances[account] += amount;\n        emit Transfer(address(0), account, amount);\n    }\n}",
  "sourcePath": "/Users/anduser/Documents/repos/personal-official/Smart-Contract/contracts/MokcERC20.sol",
  "compiler": {
    "name": "solc",
    "version": "0.8.25+commit.b61c2a91.Emscripten.clang"
  },
  "schemaVersion": "3.4.16",
  "updatedAt": "2024-05-09T12:30:55.769Z",
  "devdoc": {
    "kind": "dev",
    "methods": {},
    "version": 1
  },
  "userdoc": {
    "kind": "user",
    "methods": {},
    "version": 1
  }
}