{
  "contractName": "SwapUp",
  "abi": [
    {
      "anonymous": false,
      "inputs": [
        {
          "indexed": true,
          "internalType": "address",
          "name": "nftAddress",
          "type": "address"
        },
        {
          "indexed": true,
          "internalType": "address",
          "name": "sender",
          "type": "address"
        },
        {
          "indexed": true,
          "internalType": "address",
          "name": "receiver",
          "type": "address"
        },
        {
          "indexed": false,
          "internalType": "uint256",
          "name": "tokenId",
          "type": "uint256"
        }
      ],
      "name": "NFTTransferred",
      "type": "event"
    },
    {
      "anonymous": false,
      "inputs": [
        {
          "indexed": true,
          "internalType": "address",
          "name": "tokenAddress",
          "type": "address"
        },
        {
          "indexed": true,
          "internalType": "address",
          "name": "sender",
          "type": "address"
        },
        {
          "indexed": true,
          "internalType": "address",
          "name": "receiver",
          "type": "address"
        },
        {
          "indexed": false,
          "internalType": "uint256",
          "name": "amount",
          "type": "uint256"
        }
      ],
      "name": "TokenTransferred",
      "type": "event"
    },
    {
      "inputs": [
        {
          "internalType": "address",
          "name": "senderAddress",
          "type": "address"
        },
        {
          "internalType": "address",
          "name": "recipient",
          "type": "address"
        },
        {
          "internalType": "address",
          "name": "tokenAddress",
          "type": "address"
        },
        {
          "internalType": "uint256",
          "name": "amount",
          "type": "uint256"
        }
      ],
      "name": "transferTokens",
      "outputs": [],
      "stateMutability": "nonpayable",
      "type": "function"
    }
  ],
  "bytecode": "0x6080604052348015600e575f80fd5b5061046c8061001c5f395ff3fe608060405234801561000f575f80fd5b5060043610610029575f3560e01c806368155ec11461002d575b5f80fd5b61004061003b3660046103b1565b610042565b005b6001600160a01b0384166100965760405162461bcd60e51b8152602060048201526016602482015275496e76616c69642073656e646572206164647265737360501b60448201526064015b60405180910390fd5b6001600160a01b0383166100ec5760405162461bcd60e51b815260206004820152601860248201527f496e76616c696420726563656976657220616464726573730000000000000000604482015260640161008d565b5f811161012c5760405162461bcd60e51b815260206004820152600e60248201526d125b9d985b1a5908185b5bdd5b9d60921b604482015260640161008d565b6101388285858461013e565b50505050565b6040516370a0823160e01b81526001600160a01b038481166004830152859183918316906370a0823190602401602060405180830381865afa158015610186573d5f803e3d5ffd5b505050506040513d601f19601f820116820180604052508101906101aa91906103f9565b10156101ef5760405162461bcd60e51b8152602060048201526014602482015273496e73756666696369656e742062616c616e636560601b604482015260640161008d565b60405163095ea7b360e01b8152306004820152602481018390526001600160a01b0382169063095ea7b3906044016020604051808303815f875af1158015610239573d5f803e3d5ffd5b505050506040513d601f19601f8201168201806040525081019061025d9190610410565b50604051636eb1769f60e11b81526001600160a01b03858116600483015230602483015283919083169063dd62ed3e90604401602060405180830381865afa1580156102ab573d5f803e3d5ffd5b505050506040513d601f19601f820116820180604052508101906102cf91906103f9565b10156103165760405162461bcd60e51b8152602060048201526016602482015275496e73756666696369656e7420616c6c6f77616e636560501b604482015260640161008d565b6040516323b872dd60e01b81526001600160a01b0385811660048301528481166024830152604482018490528216906323b872dd906064016020604051808303815f875af115801561036a573d5f803e3d5ffd5b505050506040513d601f19601f8201168201806040525081019061038e9190610410565b505050505050565b80356001600160a01b03811681146103ac575f80fd5b919050565b5f805f80608085870312156103c4575f80fd5b6103cd85610396565b93506103db60208601610396565b92506103e960408601610396565b9396929550929360600135925050565b5f60208284031215610409575f80fd5b5051919050565b5f60208284031215610420575f80fd5b8151801515811461042f575f80fd5b939250505056fea264697066735822122020f2efd80887823ab6ab3663d3ed478374c78b6fc21028150b2cae745cc53f3d64736f6c63430008190033",
  "immutableReferences": {},
  "source": "// SPDX-License-Identifier: MIT\npragma solidity ^0.8.25;\n\n// import \"@openzeppelin/contracts/token/ERC721/extensions/ERC721Enumerable.sol\";\nimport \"@openzeppelin/contracts/token/ERC20/IERC20.sol\";\n\ncontract SwapUp {\n    // Event emitted when a token transfer occurs\n    event TokenTransferred(address indexed tokenAddress, address indexed sender, address indexed receiver, uint256 amount);\n    event NFTTransferred(address indexed nftAddress, address indexed sender, address indexed receiver, uint256 tokenId);\n\n    // Function to swap tokens from the contract address to the recipient address\n    function transferTokens(\n        address senderAddress,\n        address recipient,\n        address tokenAddress,\n        uint256 amount\n    ) public {\n        require(senderAddress != address(0), \"Invalid sender address\");\n        \n        // Check if receiver address is not zero\n        require(recipient != address(0), \"Invalid receiver address\");\n        \n        // Check if amount is not zero\n        require(amount > 0, \"Invalid amount\");\n\n        // initiate safe transfer\n        _safeTransferFrom(tokenAddress, senderAddress, recipient, amount);\n    }\n\n    // function transferNFT(\n    //     address senderAddress,\n    //     address recipient,\n    //     address nftAddress,\n    //     uint256 tokenId\n    // ) public {\n    //     require(senderAddress != address(0), \"Invalid sender address\");\n    //     require(recipient != address(0), \"Invalid receiver address\");\n\n    //     IERC721 nft = IERC721(nftAddress);\n\n    //     // Ensure the sender is the current owner of the token\n    //     require(nft.ownerOf(tokenId) == senderAddress, \"Sender must be the owner of the token\");\n\n    //     // Transfer the NFT\n    //     nft.transferFrom(senderAddress, recipient, tokenId);\n\n    //     // Emit the NFT transfer event\n    //     emit NFTTransferred(nftAddress, senderAddress, recipient, tokenId);\n    // }\n\n    function _safeTransferFrom(\n        address tokenAddress,\n        address sender,\n        address recipient,\n        uint256 amount\n    ) private {\n        IERC20 token = IERC20(tokenAddress);\n\n        // Check if the sender has enough balance\n        require(token.balanceOf(sender) >= amount, \"Insufficient balance\");\n\n        token.approve(address(this), amount);\n\n        require(token.allowance(sender, address(this)) >= amount, \"Insufficient allowance\");\n                \n        token.transferFrom(sender, recipient, amount);\n    }\n}",
  "sourcePath": "/Users/anduser/Documents/repos/personal-official/Smart-Contract/contracts/SwapUp.sol",
  "compiler": {
    "name": "solc",
    "version": "0.8.25+commit.b61c2a91.Emscripten.clang"
  },
  "schemaVersion": "3.4.16",
  "updatedAt": "2024-05-07T12:43:00.143Z",
  "devdoc": {
    "kind": "dev",
    "methods": {},
    "version": 1
  },
  "userdoc": {
    "kind": "user",
    "methods": {},
    "version": 1
  }
}