{
  "contractName": "SwapUp",
  "abi": [
    {
      "anonymous": false,
      "inputs": [
        {
          "indexed": true,
          "internalType": "address",
          "name": "nftAddress",
          "type": "address"
        },
        {
          "indexed": true,
          "internalType": "address",
          "name": "sender",
          "type": "address"
        },
        {
          "indexed": true,
          "internalType": "address",
          "name": "receiver",
          "type": "address"
        },
        {
          "indexed": false,
          "internalType": "uint256",
          "name": "tokenId",
          "type": "uint256"
        }
      ],
      "name": "NFTTransferred",
      "type": "event"
    },
    {
      "anonymous": false,
      "inputs": [
        {
          "indexed": true,
          "internalType": "address",
          "name": "tokenAddress",
          "type": "address"
        },
        {
          "indexed": true,
          "internalType": "address",
          "name": "sender",
          "type": "address"
        },
        {
          "indexed": true,
          "internalType": "address",
          "name": "receiver",
          "type": "address"
        },
        {
          "indexed": false,
          "internalType": "uint256",
          "name": "amount",
          "type": "uint256"
        }
      ],
      "name": "TokenTransferred",
      "type": "event"
    },
    {
      "inputs": [
        {
          "internalType": "address",
          "name": "senderAddress",
          "type": "address"
        },
        {
          "internalType": "address",
          "name": "recipient",
          "type": "address"
        },
        {
          "internalType": "address",
          "name": "tokenAddress",
          "type": "address"
        },
        {
          "internalType": "uint256",
          "name": "amount",
          "type": "uint256"
        }
      ],
      "name": "transferTokens",
      "outputs": [],
      "stateMutability": "nonpayable",
      "type": "function"
    },
    {
      "inputs": [
        {
          "internalType": "address",
          "name": "senderAddress",
          "type": "address"
        },
        {
          "internalType": "address",
          "name": "recipient",
          "type": "address"
        },
        {
          "internalType": "address",
          "name": "nftAddress",
          "type": "address"
        },
        {
          "internalType": "uint256",
          "name": "tokenId",
          "type": "uint256"
        },
        {
          "internalType": "uint256",
          "name": "quantity",
          "type": "uint256"
        }
      ],
      "name": "transferNFT",
      "outputs": [],
      "stateMutability": "nonpayable",
      "type": "function"
    }
  ],
  "bytecode": "0x6080604052348015600e575f80fd5b5061092b8061001c5f395ff3fe608060405234801561000f575f80fd5b5060043610610034575f3560e01c806368155ec114610038578063c4d6866f1461004d575b5f80fd5b61004b6100463660046107ff565b610060565b005b61004b61005b36600461084d565b610157565b6001600160a01b0384166100b45760405162461bcd60e51b8152602060048201526016602482015275496e76616c69642073656e646572206164647265737360501b60448201526064015b60405180910390fd5b6001600160a01b0383166101055760405162461bcd60e51b8152602060048201526018602482015277496e76616c6964207265636569766572206164647265737360401b60448201526064016100ab565b5f81116101455760405162461bcd60e51b815260206004820152600e60248201526d125b9d985b1a5908185b5bdd5b9d60921b60448201526064016100ab565b61015182858584610536565b50505050565b6001600160a01b0385166101a65760405162461bcd60e51b8152602060048201526016602482015275496e76616c69642073656e646572206164647265737360501b60448201526064016100ab565b6001600160a01b0384166101f75760405162461bcd60e51b8152602060048201526018602482015277496e76616c6964207265636569766572206164647265737360401b60448201526064016100ab565b610200836106d6565b15610399576040516331a9108f60e11b81526004810183905283906001600160a01b038781169190831690636352211e90602401602060405180830381865afa15801561024f573d5f803e3d5ffd5b505050506040513d601f19601f8201168201806040525081019061027391906108a4565b6001600160a01b0316146102d75760405162461bcd60e51b815260206004820152602560248201527f53656e646572206d75737420626520746865206f776e6572206f6620746865206044820152643a37b5b2b760d91b60648201526084016100ab565b6040516323b872dd60e01b81526001600160a01b0387811660048301528681166024830152604482018590528216906323b872dd906064015f604051808303815f87803b158015610326575f80fd5b505af1158015610338573d5f803e3d5ffd5b50505050846001600160a01b0316866001600160a01b0316856001600160a01b03167f92df3dd393e41cdc727bf55aa0efa6c541f13a2c76b2aa5404ac876be66dd4988660405161038b91815260200190565b60405180910390a45061052f565b6103a2836106f7565b1561052f57604051627eeac760e11b81526001600160a01b038681166004830152602482018490528491839183169062fdd58e90604401602060405180830381865afa1580156103f4573d5f803e3d5ffd5b505050506040513d601f19601f8201168201806040525081019061041891906108bf565b101561045d5760405162461bcd60e51b8152602060048201526014602482015273496e73756666696369656e742062616c616e636560601b60448201526064016100ab565b604051637921219560e11b81526001600160a01b0387811660048301528681166024830152604482018590526064820184905260a060848301525f60a483015282169063f242432a9060c4015f604051808303815f87803b1580156104c0575f80fd5b505af11580156104d2573d5f803e3d5ffd5b50505050846001600160a01b0316866001600160a01b0316856001600160a01b03167f92df3dd393e41cdc727bf55aa0efa6c541f13a2c76b2aa5404ac876be66dd4988660405161052591815260200190565b60405180910390a4505b5050505050565b6040516370a0823160e01b81526001600160a01b038481166004830152859183918316906370a0823190602401602060405180830381865afa15801561057e573d5f803e3d5ffd5b505050506040513d601f19601f820116820180604052508101906105a291906108bf565b10156105e75760405162461bcd60e51b8152602060048201526014602482015273496e73756666696369656e742062616c616e636560601b60448201526064016100ab565b60405163095ea7b360e01b8152306004820152602481018390526001600160a01b0382169063095ea7b3906044016020604051808303815f875af1158015610631573d5f803e3d5ffd5b505050506040513d601f19601f8201168201806040525081019061065591906108d6565b506040516323b872dd60e01b81526001600160a01b0385811660048301528481166024830152604482018490528216906323b872dd906064016020604051808303815f875af11580156106aa573d5f803e3d5ffd5b505050506040513d601f19601f820116820180604052508101906106ce91906108d6565b505050505050565b5f6106f16001600160a01b0383166380ac58cd60e01b61070e565b92915050565b5f6106f16001600160a01b038316636cdb3d1360e11b5b5f61071883610730565b801561072957506107298383610762565b9392505050565b5f610742826301ffc9a760e01b610762565b80156106f1575061075b826001600160e01b0319610762565b1592915050565b6040516001600160e01b0319821660248201525f90819060440160408051601f19818403018152919052602080820180516001600160e01b03166301ffc9a760e01b17815282519293505f9283928392909183918a617530fa92503d91505f5190508280156107d2575060208210155b80156107dd57505f81115b979650505050505050565b6001600160a01b03811681146107fc575f80fd5b50565b5f805f8060808587031215610812575f80fd5b843561081d816107e8565b9350602085013561082d816107e8565b9250604085013561083d816107e8565b9396929550929360600135925050565b5f805f805f60a08688031215610861575f80fd5b853561086c816107e8565b9450602086013561087c816107e8565b9350604086013561088c816107e8565b94979396509394606081013594506080013592915050565b5f602082840312156108b4575f80fd5b8151610729816107e8565b5f602082840312156108cf575f80fd5b5051919050565b5f602082840312156108e6575f80fd5b81518015158114610729575f80fdfea26469706673582212202d3275c573a92eeed764fa634b016e3b20454bd7d9d16f3f2865ad3a8f167cee64736f6c63430008190033",
  "immutableReferences": {},
  "source": "// SPDX-License-Identifier: MIT\npragma solidity ^0.8.25;\n\nimport \"@openzeppelin/contracts/token/ERC721/IERC721.sol\";\nimport \"@openzeppelin/contracts/token/ERC1155/IERC1155.sol\";\nimport \"@openzeppelin/contracts/token/ERC721/extensions/ERC721Enumerable.sol\";\nimport \"@openzeppelin/contracts/token/ERC20/IERC20.sol\";\nimport \"@openzeppelin/contracts/utils/introspection/ERC165Checker.sol\";\n\ncontract SwapUp {\n    // Event emitted when a token transfer occurs\n    event TokenTransferred(address indexed tokenAddress, address indexed sender, address indexed receiver, uint256 amount);\n    event NFTTransferred(address indexed nftAddress, address indexed sender, address indexed receiver, uint256 tokenId);\n\n    using ERC165Checker for address;\n\n    bytes4 private constant INTERFACE_ID_ERC721 = 0x80ac58cd;\n    bytes4 private constant INTERFACE_ID_ERC1155 = 0xd9b67a26;\n\n    // Function to swap tokens from the contract address to the recipient address\n    function transferTokens(\n        address senderAddress,\n        address recipient,\n        address tokenAddress,\n        uint256 amount\n    ) public {\n        require(senderAddress != address(0), \"Invalid sender address\");\n        \n        // Check if receiver address is not zero\n        require(recipient != address(0), \"Invalid receiver address\");\n        \n        // Check if amount is not zero\n        require(amount > 0, \"Invalid amount\");\n\n        // initiate safe transfer\n        _safeTransferFrom(tokenAddress, senderAddress, recipient, amount);\n    }\n\n    function transferNFT(\n        address senderAddress,\n        address recipient,\n        address nftAddress,\n        uint256 tokenId,\n        uint256 quantity\n    ) public {\n        require(senderAddress != address(0), \"Invalid sender address\");\n        require(recipient != address(0), \"Invalid receiver address\");\n\n        if (_isERC721(nftAddress)) {\n            IERC721 nft = IERC721(nftAddress);\n\n            require(nft.ownerOf(tokenId) == senderAddress, \"Sender must be the owner of the token\");\n\n            // Transfer the NFT\n            nft.transferFrom(senderAddress, recipient, tokenId);\n            \n            // Emit the NFT transfer event\n            emit NFTTransferred(nftAddress, senderAddress, recipient, tokenId);\n        } else if (_isERC1155(nftAddress)) {\n            IERC1155 nft = IERC1155(nftAddress);\n\n            require(nft.balanceOf(senderAddress, tokenId) >= quantity, \"Insufficient balance\");\n\n            nft.safeTransferFrom(senderAddress, recipient, tokenId, quantity, \"\");\n\n            // Emit the NFT transfer event\n            emit NFTTransferred(nftAddress, senderAddress, recipient, tokenId);\n        }\n        \n    }\n\n    function _safeTransferFrom(\n        address tokenAddress,\n        address sender,\n        address recipient,\n        uint256 amount\n    ) private {\n        IERC20 token = IERC20(tokenAddress);\n\n        // Check if the sender has enough balance\n        require(token.balanceOf(sender) >= amount, \"Insufficient balance\");\n\n        token.approve(address(this), amount);\n                \n        token.transferFrom(sender, recipient, amount);\n    }\n\n    function _isERC721(address token) internal view returns (bool) {\n        return token.supportsInterface(INTERFACE_ID_ERC721);\n    }\n\n    function _isERC1155(address token) internal view returns (bool) {\n        return token.supportsInterface(INTERFACE_ID_ERC1155);\n    }\n}",
  "sourcePath": "/Users/anduser/Documents/repos/personal-official/Smart-Contract/contracts/SwapUp.sol",
  "compiler": {
    "name": "solc",
    "version": "0.8.25+commit.b61c2a91.Emscripten.clang"
  },
  "schemaVersion": "3.4.16",
  "updatedAt": "2024-05-09T12:31:08.786Z",
  "networkType": "ethereum",
  "devdoc": {
    "kind": "dev",
    "methods": {},
    "version": 1
  },
  "userdoc": {
    "kind": "user",
    "methods": {},
    "version": 1
  }
}